{
  "abi": [
    {
      "type": "function",
      "name": "createMinimal",
      "inputs": [
        {
          "name": "_name",
          "type": "string",
          "internalType": "string"
        },
        {
          "name": "_symbol",
          "type": "string",
          "internalType": "string"
        },
        {
          "name": "_owner",
          "type": "address",
          "internalType": "address"
        },
        {
          "name": "_minter",
          "type": "address",
          "internalType": "address"
        },
        {
          "name": "_init_mint",
          "type": "uint256",
          "internalType": "uint256"
        },
        {
          "name": "_max_supply",
          "type": "uint256",
          "internalType": "uint256"
        }
      ],
      "outputs": [
        {
          "name": "",
          "type": "address",
          "internalType": "address"
        }
      ],
      "stateMutability": "nonpayable"
    },
    {
      "type": "event",
      "name": "MinimalCreated",
      "inputs": [
        {
          "name": "minimal",
          "type": "address",
          "indexed": true,
          "internalType": "address"
        }
      ],
      "anonymous": false
    }
  ],
  "bytecode": {
    "object": "0x6080604052348015600e575f5ffd5b50612a478061001c5f395ff3fe608060405234801561000f575f5ffd5b5060043610610029575f3560e01c8063343274581461002d575b5f5ffd5b610047600480360381019061004291906102d4565b61005d565b60405161005491906103a4565b60405180910390f35b5f5f878787878787604051610071906100ed565b6100809695949392919061042c565b604051809103905ff080158015610099573d5f5f3e3d5ffd5b5090508073ffffffffffffffffffffffffffffffffffffffff167f3305295eac56eeeb2584fc6762fc67dc4739a3416b388f0a42445f3c7bab668660405160405180910390a2809150509695505050505050565b6125788061049a83390190565b5f604051905090565b5f5ffd5b5f5ffd5b5f5ffd5b5f5ffd5b5f601f19601f8301169050919050565b7f4e487b71000000000000000000000000000000000000000000000000000000005f52604160045260245ffd5b61015982610113565b810181811067ffffffffffffffff8211171561017857610177610123565b5b80604052505050565b5f61018a6100fa565b90506101968282610150565b919050565b5f67ffffffffffffffff8211156101b5576101b4610123565b5b6101be82610113565b9050602081019050919050565b828183375f83830152505050565b5f6101eb6101e68461019b565b610181565b9050828152602081018484840111156102075761020661010f565b5b6102128482856101cb565b509392505050565b5f82601f83011261022e5761022d61010b565b5b813561023e8482602086016101d9565b91505092915050565b5f73ffffffffffffffffffffffffffffffffffffffff82169050919050565b5f61027082610247565b9050919050565b61028081610266565b811461028a575f5ffd5b50565b5f8135905061029b81610277565b92915050565b5f819050919050565b6102b3816102a1565b81146102bd575f5ffd5b50565b5f813590506102ce816102aa565b92915050565b5f5f5f5f5f5f60c087890312156102ee576102ed610103565b5b5f87013567ffffffffffffffff81111561030b5761030a610107565b5b61031789828a0161021a565b965050602087013567ffffffffffffffff81111561033857610337610107565b5b61034489828a0161021a565b955050604061035589828a0161028d565b945050606061036689828a0161028d565b935050608061037789828a016102c0565b92505060a061038889828a016102c0565b9150509295509295509295565b61039e81610266565b82525050565b5f6020820190506103b75f830184610395565b92915050565b5f81519050919050565b5f82825260208201905092915050565b8281835e5f83830152505050565b5f6103ef826103bd565b6103f981856103c7565b93506104098185602086016103d7565b61041281610113565b840191505092915050565b610426816102a1565b82525050565b5f60c0820190508181035f83015261044481896103e5565b9050818103602083015261045881886103e5565b90506104676040830187610395565b6104746060830186610395565b610481608083018561041d565b61048e60a083018461041d565b97965050505050505056fe608060405234801561000f575f5ffd5b5060405161257838038061257883398181016040528101906100319190610475565b6100408461011360201b60201c565b855f908161004e919061073d565b50846001908161005e919061073d565b50806002819055505f73ffffffffffffffffffffffffffffffffffffffff168373ffffffffffffffffffffffffffffffffffffffff161461010857600160035f8573ffffffffffffffffffffffffffffffffffffffff1673ffffffffffffffffffffffffffffffffffffffff1681526020019081526020015f205f6101000a81548160ff0219169083151502179055505f8211156101075761010683836101ef60201b60201c565b5b5b50505050505061080c565b61012161028d60201b60201c565b15610199577fffffffffffffffffffffffffffffffffffffffffffffffffffffffff7487392780541561015b57630dc149f05f526004601cfd5b8160601b60601c9150811560ff1b82178155815f7f8be0079c531659141344cd1fd0a4f28419497f9722a3daafe3b4186f6b6457e05f5fa3506101ec565b8060601b60601c9050807fffffffffffffffffffffffffffffffffffffffffffffffffffffffff7487392755805f7f8be0079c531659141344cd1fd0a4f28419497f9722a3daafe3b4186f6b6457e05f5fa35b50565b6102005f838361029160201b60201c565b6805345cdf77eb68f44c54818101818110156102235763e5cfe9575f526004601cfd5b806805345cdf77eb68f44c556387a211a2600c52835f526020600c2083815401815583602052600c5160601c5f7fddf252ad1be2c89b69c2b068fc378daa952ba7f163c4a11628f55a4df523b3ef602080a35050506102895f838361029660201b60201c565b5050565b5f90565b505050565b505050565b5f604051905090565b5f5ffd5b5f5ffd5b5f5ffd5b5f5ffd5b5f601f19601f8301169050919050565b7f4e487b71000000000000000000000000000000000000000000000000000000005f52604160045260245ffd5b6102fa826102b4565b810181811067ffffffffffffffff82111715610319576103186102c4565b5b80604052505050565b5f61032b61029b565b905061033782826102f1565b919050565b5f67ffffffffffffffff821115610356576103556102c4565b5b61035f826102b4565b9050602081019050919050565b8281835e5f83830152505050565b5f61038c6103878461033c565b610322565b9050828152602081018484840111156103a8576103a76102b0565b5b6103b384828561036c565b509392505050565b5f82601f8301126103cf576103ce6102ac565b5b81516103df84826020860161037a565b91505092915050565b5f73ffffffffffffffffffffffffffffffffffffffff82169050919050565b5f610411826103e8565b9050919050565b61042181610407565b811461042b575f5ffd5b50565b5f8151905061043c81610418565b92915050565b5f819050919050565b61045481610442565b811461045e575f5ffd5b50565b5f8151905061046f8161044b565b92915050565b5f5f5f5f5f5f60c0878903121561048f5761048e6102a4565b5b5f87015167ffffffffffffffff8111156104ac576104ab6102a8565b5b6104b889828a016103bb565b965050602087015167ffffffffffffffff8111156104d9576104d86102a8565b5b6104e589828a016103bb565b95505060406104f689828a0161042e565b945050606061050789828a0161042e565b935050608061051889828a01610461565b92505060a061052989828a01610461565b9150509295509295509295565b5f81519050919050565b7f4e487b71000000000000000000000000000000000000000000000000000000005f52602260045260245ffd5b5f600282049050600182168061058457607f821691505b60208210810361059757610596610540565b5b50919050565b5f819050815f5260205f209050919050565b5f6020601f8301049050919050565b5f82821b905092915050565b5f600883026105f97fffffffffffffffffffffffffffffffffffffffffffffffffffffffffffffffff826105be565b61060386836105be565b95508019841693508086168417925050509392505050565b5f819050919050565b5f61063e61063961063484610442565b61061b565b610442565b9050919050565b5f819050919050565b61065783610624565b61066b61066382610645565b8484546105ca565b825550505050565b5f5f905090565b610682610673565b61068d81848461064e565b505050565b5b818110156106b0576106a55f8261067a565b600181019050610693565b5050565b601f8211156106f5576106c68161059d565b6106cf846105af565b810160208510156106de578190505b6106f26106ea856105af565b830182610692565b50505b505050565b5f82821c905092915050565b5f6107155f19846008026106fa565b1980831691505092915050565b5f61072d8383610706565b9150826002028217905092915050565b61074682610536565b67ffffffffffffffff81111561075f5761075e6102c4565b5b610769825461056d565b6107748282856106b4565b5f60209050601f8311600181146107a5575f8415610793578287015190505b61079d8582610722565b865550610804565b601f1984166107b38661059d565b5f5b828110156107da578489015182556001820191506020850194506020810190506107b5565b868310156107f757848901516107f3601f891682610706565b8355505b6001600288020188555050505b505050505050565b611d5f806108195f395ff3fe608060405260043610610165575f3560e01c80637ecebe00116100d0578063cf456ae711610089578063dd62ed3e11610063578063dd62ed3e146104dd578063f04e283e14610519578063f2fde38b14610535578063fee81cf41461055157610165565b8063cf456ae714610463578063d505accf1461048b578063d5abeb01146104b357610165565b80637ecebe00146103335780638da5cb5b1461036f57806395d89b41146103995780639dc29fac146103c3578063a9059cbb146103eb578063aa271e1a1461042757610165565b80633644e515116101225780633644e5151461026957806340c10f191461029357806354d1f13d146102bb57806370a08231146102c5578063715018a6146103015780637c88e3d91461030b57610165565b806306fdde0314610169578063095ea7b31461019357806318160ddd146101cf57806323b872dd146101f95780632569296214610235578063313ce5671461023f575b5f5ffd5b348015610174575f5ffd5b5061017d61058d565b60405161018a91906116eb565b60405180910390f35b34801561019e575f5ffd5b506101b960048036038101906101b491906117a0565b61061c565b6040516101c691906117f8565b60405180910390f35b3480156101da575f5ffd5b506101e36106a7565b6040516101f09190611820565b60405180910390f35b348015610204575f5ffd5b5061021f600480360381019061021a9190611839565b6106b8565b60405161022c91906117f8565b60405180910390f35b61023d61085e565b005b34801561024a575f5ffd5b506102536108af565b60405161026091906118a4565b60405180910390f35b348015610274575f5ffd5b5061027d6108b7565b60405161028a91906118d5565b60405180910390f35b34801561029e575f5ffd5b506102b960048036038101906102b491906117a0565b610933565b005b6102c3610a74565b005b3480156102d0575f5ffd5b506102eb60048036038101906102e691906118ee565b610aad565b6040516102f89190611820565b60405180910390f35b610309610ac6565b005b348015610316575f5ffd5b50610331600480360381019061032c91906119cf565b610ad9565b005b34801561033e575f5ffd5b50610359600480360381019061035491906118ee565b610d2d565b6040516103669190611820565b60405180910390f35b34801561037a575f5ffd5b50610383610d46565b6040516103909190611a5c565b60405180910390f35b3480156103a4575f5ffd5b506103ad610d6e565b6040516103ba91906116eb565b60405180910390f35b3480156103ce575f5ffd5b506103e960048036038101906103e491906117a0565b610dfe565b005b3480156103f6575f5ffd5b50610411600480360381019061040c91906117a0565b610ead565b60405161041e91906117f8565b60405180910390f35b348015610432575f5ffd5b5061044d600480360381019061044891906118ee565b610f3b565b60405161045a91906117f8565b60405180910390f35b34801561046e575f5ffd5b5061048960048036038101906104849190611a9f565b610f8d565b005b348015610496575f5ffd5b506104b160048036038101906104ac9190611b31565b6110a0565b005b3480156104be575f5ffd5b506104c7611263565b6040516104d49190611820565b60405180910390f35b3480156104e8575f5ffd5b5061050360048036038101906104fe9190611bce565b61126c565b6040516105109190611820565b60405180910390f35b610533600480360381019061052e91906118ee565b611303565b005b61054f600480360381019061054a91906118ee565b611341565b005b34801561055c575f5ffd5b50610577600480360381019061057291906118ee565b61136a565b6040516105849190611820565b60405180910390f35b60605f805461059b90611c39565b80601f01602080910402602001604051908101604052809291908181526020018280546105c790611c39565b80156106125780601f106105e957610100808354040283529160200191610612565b820191905f5260205f20905b8154815290600101906020018083116105f557829003601f168201915b5050505050905090565b5f610625611383565b15610658578119156e22d473030f116ddee9f6b43ac78ba38460601b60601c181761065757633f68539a5f526004601cfd5b5b82602052637f5e9f20600c52335f52816034600c2055815f52602c5160601c337f8c5be1e5ebec7d5bd14f71427d1e84f3dd0314c0f7b2291e5b200ac8c7c3b92560205fa36001905092915050565b5f6805345cdf77eb68f44c54905090565b5f6106c484848461138b565b6106cc611383565b1561079a578360601b6e22d473030f116ddee9f6b43ac78ba333146107255733602052637f5e9f208117600c526034600c208054801915610722578085111561071c576313be252b5f526004601cfd5b84810382555b50505b6387a211a28117600c526020600c2080548085111561074b5763f4d678b85f526004601cfd5b8481038255855f526020600c2085815401815585602052600c5160601c8460601c7fddf252ad1be2c89b69c2b068fc378daa952ba7f163c4a11628f55a4df523b3ef602080a350505050610848565b8360601b33602052637f5e9f208117600c526034600c2080548019156107d557808511156107cf576313be252b5f526004601cfd5b84810382555b6387a211a28317600c526020600c208054808711156107fb5763f4d678b85f526004601cfd5b8681038255875f526020600c2087815401815587602052600c5160601c8660601c7fddf252ad1be2c89b69c2b068fc378daa952ba7f163c4a11628f55a4df523b3ef602080a35050505050505b610853848484611390565b600190509392505050565b5f610867611395565b67ffffffffffffffff164201905063389a75e1600c52335f52806020600c2055337fdbf36a107da19e49527a7176a1babf963b4b0ff8cde35ee35d6cd8f1f9ac7e1d5f5fa250565b5f6012905090565b5f5f6108c161139f565b90505f5f1b81036108de576108d461058d565b8051906020012090505b5f6108e76113a3565b90506040517f8b73c3c69bb8fe3d512ecc4cf759cc79239f7b179b0ffacaa9a75d522b39400f815282602082015281604082015246606082015230608082015260a08120935050505090565b5f73ffffffffffffffffffffffffffffffffffffffff168273ffffffffffffffffffffffffffffffffffffffff1603610998576040517f867915ab00000000000000000000000000000000000000000000000000000000815260040160405180910390fd5b60035f3373ffffffffffffffffffffffffffffffffffffffff1673ffffffffffffffffffffffffffffffffffffffff1681526020019081526020015f205f9054906101000a900460ff16610a18576040517ff8d2906c00000000000000000000000000000000000000000000000000000000815260040160405180910390fd5b60025481610a246106a7565b610a2e9190611c96565b1115610a66576040517f8a164f6300000000000000000000000000000000000000000000000000000000815260040160405180910390fd5b610a7082826113cc565b5050565b63389a75e1600c52335f525f6020600c2055337ffa7b8eab7da67f412cc9575ed43464468f9bfbae89d1675917346ca6d8fe3c925f5fa2565b5f6387a211a2600c52815f526020600c20549050919050565b610ace61145e565b610ad75f611495565b565b60035f3373ffffffffffffffffffffffffffffffffffffffff1673ffffffffffffffffffffffffffffffffffffffff1681526020019081526020015f205f9054906101000a900460ff16610b59576040517ff8d2906c00000000000000000000000000000000000000000000000000000000815260040160405180910390fd5b818190508484905014610b98576040517f5e11c6f200000000000000000000000000000000000000000000000000000000815260040160405180910390fd5b5f610ba16106a7565b90505f5f90505b85859050811015610c7a575f73ffffffffffffffffffffffffffffffffffffffff16868683818110610bdd57610bdc611cc9565b5b9050602002016020810190610bf291906118ee565b73ffffffffffffffffffffffffffffffffffffffff1603610c3f576040517f867915ab00000000000000000000000000000000000000000000000000000000815260040160405180910390fd5b838382818110610c5257610c51611cc9565b5b9050602002013582610c649190611c96565b9150600181610c739190611c96565b9050610ba8565b50600254811115610cb7576040517f8a164f6300000000000000000000000000000000000000000000000000000000815260040160405180910390fd5b5f5f90505b85859050811015610d2557610d11868683818110610cdd57610cdc611cc9565b5b9050602002016020810190610cf291906118ee565b858584818110610d0557610d04611cc9565b5b905060200201356113cc565b600181610d1e9190611c96565b9050610cbc565b505050505050565b5f6338377508600c52815f526020600c20549050919050565b5f7fffffffffffffffffffffffffffffffffffffffffffffffffffffffff7487392754905090565b606060018054610d7d90611c39565b80601f0160208091040260200160405190810160405280929190818152602001828054610da990611c39565b8015610df45780601f10610dcb57610100808354040283529160200191610df4565b820191905f5260205f20905b815481529060010190602001808311610dd757829003601f168201915b5050505050905090565b3373ffffffffffffffffffffffffffffffffffffffff168273ffffffffffffffffffffffffffffffffffffffff1603610e4057610e3b828261155b565b610ea9565b5f610e4b833361126c565b905081811015610e87576040517f902b38ea00000000000000000000000000000000000000000000000000000000815260040160405180910390fd5b610e9d83338484610e989190611cf6565b6115eb565b610ea7838361155b565b505b5050565b5f610eb933848461138b565b6387a211a2600c52335f526020600c20805480841115610ee05763f4d678b85f526004601cfd5b8381038255845f526020600c2084815401815584602052600c5160601c337fddf252ad1be2c89b69c2b068fc378daa952ba7f163c4a11628f55a4df523b3ef602080a3505050610f31338484611390565b6001905092915050565b5f60035f8373ffffffffffffffffffffffffffffffffffffffff1673ffffffffffffffffffffffffffffffffffffffff1681526020019081526020015f205f9054906101000a900460ff169050919050565b610f9561145e565b5f73ffffffffffffffffffffffffffffffffffffffff168273ffffffffffffffffffffffffffffffffffffffff1603610ffa576040517f867915ab00000000000000000000000000000000000000000000000000000000815260040160405180910390fd5b8060035f8473ffffffffffffffffffffffffffffffffffffffff1673ffffffffffffffffffffffffffffffffffffffff1681526020019081526020015f205f6101000a81548160ff0219169083151502179055508173ffffffffffffffffffffffffffffffffffffffff167f583b0aa0e528532caf4b907c11d7a8158a122fe2a6fb80cd9b09776ebea8d92d8260405161109491906117f8565b60405180910390a25050565b6110a8611383565b156110db578419156e22d473030f116ddee9f6b43ac78ba38760601b60601c18176110da57633f68539a5f526004601cfd5b5b5f6110e461139f565b90505f5f1b8103611101576110f761058d565b8051906020012090505b5f61110a6113a3565b90508542111561112157631a15a3cc5f526004601cfd5b6040518960601b60601c99508860601b60601c985065383775081901600e52895f526020600c2080547f8b73c3c69bb8fe3d512ecc4cf759cc79239f7b179b0ffacaa9a75d522b39400f835284602084015283604084015246606084015230608084015260a08320602e527f6e71edae12b1b97f4d1f60370fef10105fa2faae0126114a169c64845d6126c983528b60208401528a60408401528960608401528060808401528860a084015260c08320604e526042602c205f528760ff16602052866040528560605260208060805f60015afa8c3d51146112095763ddafbaef5f526004601cfd5b80820183558b637f5e9f2060a01b176040528a6034602c20558b8d7f8c5be1e5ebec7d5bd14f71427d1e84f3dd0314c0f7b2291e5b200ac8c7c3b925602060608801a3836040525f60605250505050505050505050505050565b5f600254905090565b5f611275611383565b156112e5576e22d473030f116ddee9f6b43ac78ba373ffffffffffffffffffffffffffffffffffffffff168273ffffffffffffffffffffffffffffffffffffffff16036112e4577fffffffffffffffffffffffffffffffffffffffffffffffffffffffffffffffff90506112fd565b5b81602052637f5e9f20600c52825f526034600c205490505b92915050565b61130b61145e565b63389a75e1600c52805f526020600c20805442111561133157636f5e88185f526004601cfd5b5f81555061133e81611495565b50565b61134961145e565b8060601b61135e57637448fbae5f526004601cfd5b61136781611495565b50565b5f63389a75e1600c52815f526020600c20549050919050565b5f6001905090565b505050565b505050565b5f6202a300905090565b5f90565b5f7fc89efdaa54c0f20c7adf612882df0950f5a951637e0307cdcb4c672f298b8bc65f1b905090565b6113d75f838361138b565b6805345cdf77eb68f44c54818101818110156113fa5763e5cfe9575f526004601cfd5b806805345cdf77eb68f44c556387a211a2600c52835f526020600c2083815401815583602052600c5160601c5f7fddf252ad1be2c89b69c2b068fc378daa952ba7f163c4a11628f55a4df523b3ef602080a350505061145a5f8383611390565b5050565b7fffffffffffffffffffffffffffffffffffffffffffffffffffffffff74873927543314611493576382b429005f526004601cfd5b565b61149d611677565b15611502577fffffffffffffffffffffffffffffffffffffffffffffffffffffffff748739278160601b60601c91508181547f8be0079c531659141344cd1fd0a4f28419497f9722a3daafe3b4186f6b6457e05f5fa3811560ff1b8217815550611558565b7fffffffffffffffffffffffffffffffffffffffffffffffffffffffff748739278160601b60601c91508181547f8be0079c531659141344cd1fd0a4f28419497f9722a3daafe3b4186f6b6457e05f5fa3818155505b50565b611566825f8361138b565b6387a211a2600c52815f526020600c2080548083111561158d5763f4d678b85f526004601cfd5b8281038255826805345cdf77eb68f44c54036805345cdf77eb68f44c55825f525f8460601b60601c7fddf252ad1be2c89b69c2b068fc378daa952ba7f163c4a11628f55a4df523b3ef60205fa350506115e7825f83611390565b5050565b6115f3611383565b15611626578019156e22d473030f116ddee9f6b43ac78ba38360601b60601c181761162557633f68539a5f526004601cfd5b5b8260601b82602052637f5e9f208117600c52816034600c2055815f52602c5160601c8160601c7f8c5be1e5ebec7d5bd14f71427d1e84f3dd0314c0f7b2291e5b200ac8c7c3b92560205fa350505050565b5f90565b5f81519050919050565b5f82825260208201905092915050565b8281835e5f83830152505050565b5f601f19601f8301169050919050565b5f6116bd8261167b565b6116c78185611685565b93506116d7818560208601611695565b6116e0816116a3565b840191505092915050565b5f6020820190508181035f83015261170381846116b3565b905092915050565b5f5ffd5b5f5ffd5b5f73ffffffffffffffffffffffffffffffffffffffff82169050919050565b5f61173c82611713565b9050919050565b61174c81611732565b8114611756575f5ffd5b50565b5f8135905061176781611743565b92915050565b5f819050919050565b61177f8161176d565b8114611789575f5ffd5b50565b5f8135905061179a81611776565b92915050565b5f5f604083850312156117b6576117b561170b565b5b5f6117c385828601611759565b92505060206117d48582860161178c565b9150509250929050565b5f8115159050919050565b6117f2816117de565b82525050565b5f60208201905061180b5f8301846117e9565b92915050565b61181a8161176d565b82525050565b5f6020820190506118335f830184611811565b92915050565b5f5f5f606084860312156118505761184f61170b565b5b5f61185d86828701611759565b935050602061186e86828701611759565b925050604061187f8682870161178c565b9150509250925092565b5f60ff82169050919050565b61189e81611889565b82525050565b5f6020820190506118b75f830184611895565b92915050565b5f819050919050565b6118cf816118bd565b82525050565b5f6020820190506118e85f8301846118c6565b92915050565b5f602082840312156119035761190261170b565b5b5f61191084828501611759565b91505092915050565b5f5ffd5b5f5ffd5b5f5ffd5b5f5f83601f84011261193a57611939611919565b5b8235905067ffffffffffffffff8111156119575761195661191d565b5b60208301915083602082028301111561197357611972611921565b5b9250929050565b5f5f83601f84011261198f5761198e611919565b5b8235905067ffffffffffffffff8111156119ac576119ab61191d565b5b6020830191508360208202830111156119c8576119c7611921565b5b9250929050565b5f5f5f5f604085870312156119e7576119e661170b565b5b5f85013567ffffffffffffffff811115611a0457611a0361170f565b5b611a1087828801611925565b9450945050602085013567ffffffffffffffff811115611a3357611a3261170f565b5b611a3f8782880161197a565b925092505092959194509250565b611a5681611732565b82525050565b5f602082019050611a6f5f830184611a4d565b92915050565b611a7e816117de565b8114611a88575f5ffd5b50565b5f81359050611a9981611a75565b92915050565b5f5f60408385031215611ab557611ab461170b565b5b5f611ac285828601611759565b9250506020611ad385828601611a8b565b9150509250929050565b611ae681611889565b8114611af0575f5ffd5b50565b5f81359050611b0181611add565b92915050565b611b10816118bd565b8114611b1a575f5ffd5b50565b5f81359050611b2b81611b07565b92915050565b5f5f5f5f5f5f5f60e0888a031215611b4c57611b4b61170b565b5b5f611b598a828b01611759565b9750506020611b6a8a828b01611759565b9650506040611b7b8a828b0161178c565b9550506060611b8c8a828b0161178c565b9450506080611b9d8a828b01611af3565b93505060a0611bae8a828b01611b1d565b92505060c0611bbf8a828b01611b1d565b91505092959891949750929550565b5f5f60408385031215611be457611be361170b565b5b5f611bf185828601611759565b9250506020611c0285828601611759565b9150509250929050565b7f4e487b71000000000000000000000000000000000000000000000000000000005f52602260045260245ffd5b5f6002820490506001821680611c5057607f821691505b602082108103611c6357611c62611c0c565b5b50919050565b7f4e487b71000000000000000000000000000000000000000000000000000000005f52601160045260245ffd5b5f611ca08261176d565b9150611cab8361176d565b9250828201905080821115611cc357611cc2611c69565b5b92915050565b7f4e487b71000000000000000000000000000000000000000000000000000000005f52603260045260245ffd5b5f611d008261176d565b9150611d0b8361176d565b9250828203905081811115611d2357611d22611c69565b5b9291505056fea2646970667358221220bc553aecb25d26111b3982424dc3569c882f232284812c66cf667de66a0c2dc164736f6c634300081d0033a2646970667358221220eab43d683884df2c5507528e734587b7a8c41752ff63dfc992fbe05d8b7088e064736f6c634300081d0033",
    "linkReferences": {}
  },
  "methodIdentifiers": {
    "createMinimal(string,string,address,address,uint256,uint256)": "34327458"
  },
  "id": 20
}