{"abi":[{"type":"constructor","inputs":[{"name":"_name","type":"string","internalType":"string"},{"name":"_symbol","type":"string","internalType":"string"},{"name":"_owner","type":"address","internalType":"address"},{"name":"_minter","type":"address","internalType":"address"},{"name":"_init_mint","type":"uint256","internalType":"uint256"}],"stateMutability":"nonpayable"},{"type":"function","name":"DOMAIN_SEPARATOR","inputs":[],"outputs":[{"name":"result","type":"bytes32","internalType":"bytes32"}],"stateMutability":"view"},{"type":"function","name":"allowance","inputs":[{"name":"owner","type":"address","internalType":"address"},{"name":"spender","type":"address","internalType":"address"}],"outputs":[{"name":"result","type":"uint256","internalType":"uint256"}],"stateMutability":"view"},{"type":"function","name":"approve","inputs":[{"name":"spender","type":"address","internalType":"address"},{"name":"amount","type":"uint256","internalType":"uint256"}],"outputs":[{"name":"","type":"bool","internalType":"bool"}],"stateMutability":"nonpayable"},{"type":"function","name":"balanceOf","inputs":[{"name":"owner","type":"address","internalType":"address"}],"outputs":[{"name":"result","type":"uint256","internalType":"uint256"}],"stateMutability":"view"},{"type":"function","name":"burn","inputs":[{"name":"from","type":"address","internalType":"address"},{"name":"amount","type":"uint256","internalType":"uint256"}],"outputs":[],"stateMutability":"nonpayable"},{"type":"function","name":"cancelOwnershipHandover","inputs":[],"outputs":[],"stateMutability":"payable"},{"type":"function","name":"completeOwnershipHandover","inputs":[{"name":"pendingOwner","type":"address","internalType":"address"}],"outputs":[],"stateMutability":"payable"},{"type":"function","name":"decimals","inputs":[],"outputs":[{"name":"","type":"uint8","internalType":"uint8"}],"stateMutability":"view"},{"type":"function","name":"isMinter","inputs":[{"name":"_minter","type":"address","internalType":"address"}],"outputs":[{"name":"","type":"bool","internalType":"bool"}],"stateMutability":"view"},{"type":"function","name":"mint","inputs":[{"name":"to","type":"address","internalType":"address"},{"name":"amount","type":"uint256","internalType":"uint256"}],"outputs":[],"stateMutability":"nonpayable"},{"type":"function","name":"mintBatch","inputs":[{"name":"addrs","type":"address[]","internalType":"address[]"},{"name":"amounts","type":"uint256[]","internalType":"uint256[]"}],"outputs":[],"stateMutability":"nonpayable"},{"type":"function","name":"name","inputs":[],"outputs":[{"name":"","type":"string","internalType":"string"}],"stateMutability":"view"},{"type":"function","name":"nonces","inputs":[{"name":"owner","type":"address","internalType":"address"}],"outputs":[{"name":"result","type":"uint256","internalType":"uint256"}],"stateMutability":"view"},{"type":"function","name":"owner","inputs":[],"outputs":[{"name":"result","type":"address","internalType":"address"}],"stateMutability":"view"},{"type":"function","name":"ownershipHandoverExpiresAt","inputs":[{"name":"pendingOwner","type":"address","internalType":"address"}],"outputs":[{"name":"result","type":"uint256","internalType":"uint256"}],"stateMutability":"view"},{"type":"function","name":"permit","inputs":[{"name":"owner","type":"address","internalType":"address"},{"name":"spender","type":"address","internalType":"address"},{"name":"value","type":"uint256","internalType":"uint256"},{"name":"deadline","type":"uint256","internalType":"uint256"},{"name":"v","type":"uint8","internalType":"uint8"},{"name":"r","type":"bytes32","internalType":"bytes32"},{"name":"s","type":"bytes32","internalType":"bytes32"}],"outputs":[],"stateMutability":"nonpayable"},{"type":"function","name":"renounceOwnership","inputs":[],"outputs":[],"stateMutability":"payable"},{"type":"function","name":"requestOwnershipHandover","inputs":[],"outputs":[],"stateMutability":"payable"},{"type":"function","name":"setMinter","inputs":[{"name":"_minter","type":"address","internalType":"address"},{"name":"_value","type":"bool","internalType":"bool"}],"outputs":[],"stateMutability":"nonpayable"},{"type":"function","name":"symbol","inputs":[],"outputs":[{"name":"","type":"string","internalType":"string"}],"stateMutability":"view"},{"type":"function","name":"totalSupply","inputs":[],"outputs":[{"name":"result","type":"uint256","internalType":"uint256"}],"stateMutability":"view"},{"type":"function","name":"transfer","inputs":[{"name":"to","type":"address","internalType":"address"},{"name":"amount","type":"uint256","internalType":"uint256"}],"outputs":[{"name":"","type":"bool","internalType":"bool"}],"stateMutability":"nonpayable"},{"type":"function","name":"transferFrom","inputs":[{"name":"from","type":"address","internalType":"address"},{"name":"to","type":"address","internalType":"address"},{"name":"amount","type":"uint256","internalType":"uint256"}],"outputs":[{"name":"","type":"bool","internalType":"bool"}],"stateMutability":"nonpayable"},{"type":"function","name":"transferOwnership","inputs":[{"name":"newOwner","type":"address","internalType":"address"}],"outputs":[],"stateMutability":"payable"},{"type":"event","name":"Approval","inputs":[{"name":"owner","type":"address","indexed":true,"internalType":"address"},{"name":"spender","type":"address","indexed":true,"internalType":"address"},{"name":"amount","type":"uint256","indexed":false,"internalType":"uint256"}],"anonymous":false},{"type":"event","name":"MinterSet","inputs":[{"name":"minter","type":"address","indexed":true,"internalType":"address"},{"name":"value","type":"bool","indexed":false,"internalType":"bool"}],"anonymous":false},{"type":"event","name":"OwnershipHandoverCanceled","inputs":[{"name":"pendingOwner","type":"address","indexed":true,"internalType":"address"}],"anonymous":false},{"type":"event","name":"OwnershipHandoverRequested","inputs":[{"name":"pendingOwner","type":"address","indexed":true,"internalType":"address"}],"anonymous":false},{"type":"event","name":"OwnershipTransferred","inputs":[{"name":"oldOwner","type":"address","indexed":true,"internalType":"address"},{"name":"newOwner","type":"address","indexed":true,"internalType":"address"}],"anonymous":false},{"type":"event","name":"Transfer","inputs":[{"name":"from","type":"address","indexed":true,"internalType":"address"},{"name":"to","type":"address","indexed":true,"internalType":"address"},{"name":"amount","type":"uint256","indexed":false,"internalType":"uint256"}],"anonymous":false},{"type":"error","name":"AllowanceOverflow","inputs":[]},{"type":"error","name":"AllowanceUnderflow","inputs":[]},{"type":"error","name":"AlreadyInitialized","inputs":[]},{"type":"error","name":"InsufficientAllowance","inputs":[]},{"type":"error","name":"InsufficientBalance","inputs":[]},{"type":"error","name":"InvalidPermit","inputs":[]},{"type":"error","name":"NewOwnerIsZeroAddress","inputs":[]},{"type":"error","name":"NoHandoverRequest","inputs":[]},{"type":"error","name":"Permit2AllowanceIsFixedAtInfinity","inputs":[]},{"type":"error","name":"PermitExpired","inputs":[]},{"type":"error","name":"TotalSupplyOverflow","inputs":[]},{"type":"error","name":"Unauthorized","inputs":[]}],"bytecode":{"object":"0x608060405234801561000f575f5ffd5b5060405161264838038061264883398181016040528101906100319190610499565b845f908161003f919061074f565b50836001908161004f919061074f565b5061005f8361010b60201b60201c565b5f73ffffffffffffffffffffffffffffffffffffffff168273ffffffffffffffffffffffffffffffffffffffff161461010157600160025f8473ffffffffffffffffffffffffffffffffffffffff1673ffffffffffffffffffffffffffffffffffffffff1681526020019081526020015f205f6101000a81548160ff0219169083151502179055505f811115610100576100ff82826101e760201b60201c565b5b5b505050505061081e565b61011961028560201b60201c565b15610191577fffffffffffffffffffffffffffffffffffffffffffffffffffffffff7487392780541561015357630dc149f05f526004601cfd5b8160601b60601c9150811560ff1b82178155815f7f8be0079c531659141344cd1fd0a4f28419497f9722a3daafe3b4186f6b6457e05f5fa3506101e4565b8060601b60601c9050807fffffffffffffffffffffffffffffffffffffffffffffffffffffffff7487392755805f7f8be0079c531659141344cd1fd0a4f28419497f9722a3daafe3b4186f6b6457e05f5fa35b50565b6101f85f838361028960201b60201c565b6805345cdf77eb68f44c548181018181101561021b5763e5cfe9575f526004601cfd5b806805345cdf77eb68f44c556387a211a2600c52835f526020600c2083815401815583602052600c5160601c5f7fddf252ad1be2c89b69c2b068fc378daa952ba7f163c4a11628f55a4df523b3ef602080a35050506102815f838361029f60201b60201c565b5050565b5f90565b61029a8383836102b560201b60201c565b505050565b6102b08383836102ba60201b60201c565b505050565b505050565b505050565b5f604051905090565b5f5ffd5b5f5ffd5b5f5ffd5b5f5ffd5b5f601f19601f8301169050919050565b7f4e487b71000000000000000000000000000000000000000000000000000000005f52604160045260245ffd5b61031e826102d8565b810181811067ffffffffffffffff8211171561033d5761033c6102e8565b5b80604052505050565b5f61034f6102bf565b905061035b8282610315565b919050565b5f67ffffffffffffffff82111561037a576103796102e8565b5b610383826102d8565b9050602081019050919050565b8281835e5f83830152505050565b5f6103b06103ab84610360565b610346565b9050828152602081018484840111156103cc576103cb6102d4565b5b6103d7848285610390565b509392505050565b5f82601f8301126103f3576103f26102d0565b5b815161040384826020860161039e565b91505092915050565b5f73ffffffffffffffffffffffffffffffffffffffff82169050919050565b5f6104358261040c565b9050919050565b6104458161042b565b811461044f575f5ffd5b50565b5f815190506104608161043c565b92915050565b5f819050919050565b61047881610466565b8114610482575f5ffd5b50565b5f815190506104938161046f565b92915050565b5f5f5f5f5f60a086880312156104b2576104b16102c8565b5b5f86015167ffffffffffffffff8111156104cf576104ce6102cc565b5b6104db888289016103df565b955050602086015167ffffffffffffffff8111156104fc576104fb6102cc565b5b610508888289016103df565b945050604061051988828901610452565b935050606061052a88828901610452565b925050608061053b88828901610485565b9150509295509295909350565b5f81519050919050565b7f4e487b71000000000000000000000000000000000000000000000000000000005f52602260045260245ffd5b5f600282049050600182168061059657607f821691505b6020821081036105a9576105a8610552565b5b50919050565b5f819050815f5260205f209050919050565b5f6020601f8301049050919050565b5f82821b905092915050565b5f6008830261060b7fffffffffffffffffffffffffffffffffffffffffffffffffffffffffffffffff826105d0565b61061586836105d0565b95508019841693508086168417925050509392505050565b5f819050919050565b5f61065061064b61064684610466565b61062d565b610466565b9050919050565b5f819050919050565b61066983610636565b61067d61067582610657565b8484546105dc565b825550505050565b5f5f905090565b610694610685565b61069f818484610660565b505050565b5b818110156106c2576106b75f8261068c565b6001810190506106a5565b5050565b601f821115610707576106d8816105af565b6106e1846105c1565b810160208510156106f0578190505b6107046106fc856105c1565b8301826106a4565b50505b505050565b5f82821c905092915050565b5f6107275f198460080261070c565b1980831691505092915050565b5f61073f8383610718565b9150826002028217905092915050565b61075882610548565b67ffffffffffffffff811115610771576107706102e8565b5b61077b825461057f565b6107868282856106c6565b5f60209050601f8311600181146107b7575f84156107a5578287015190505b6107af8582610734565b865550610816565b601f1984166107c5866105af565b5f5b828110156107ec578489015182556001820191506020850194506020810190506107c7565b868310156108095784890151610805601f891682610718565b8355505b6001600288020188555050505b505050505050565b611e1d8061082b5f395ff3fe60806040526004361061014a575f3560e01c80637ecebe00116100b5578063cf456ae71161006e578063cf456ae714610448578063d505accf14610470578063dd62ed3e14610498578063f04e283e146104d4578063f2fde38b146104f0578063fee81cf41461050c5761014a565b80637ecebe00146103185780638da5cb5b1461035457806395d89b411461037e5780639dc29fac146103a8578063a9059cbb146103d0578063aa271e1a1461040c5761014a565b80633644e515116101075780633644e5151461024e57806340c10f191461027857806354d1f13d146102a057806370a08231146102aa578063715018a6146102e65780637c88e3d9146102f05761014a565b806306fdde031461014e578063095ea7b31461017857806318160ddd146101b457806323b872dd146101de578063256929621461021a578063313ce56714610224575b5f5ffd5b348015610159575f5ffd5b50610162610548565b60405161016f91906115e3565b60405180910390f35b348015610183575f5ffd5b5061019e60048036038101906101999190611698565b6105d7565b6040516101ab91906116f0565b60405180910390f35b3480156101bf575f5ffd5b506101c8610662565b6040516101d59190611718565b60405180910390f35b3480156101e9575f5ffd5b5061020460048036038101906101ff9190611731565b610673565b60405161021191906116f0565b60405180910390f35b610222610819565b005b34801561022f575f5ffd5b5061023861086a565b604051610245919061179c565b60405180910390f35b348015610259575f5ffd5b50610262610872565b60405161026f91906117cd565b60405180910390f35b348015610283575f5ffd5b5061029e60048036038101906102999190611698565b6108ee565b005b6102a86109f3565b005b3480156102b5575f5ffd5b506102d060048036038101906102cb91906117e6565b610a2c565b6040516102dd9190611718565b60405180910390f35b6102ee610a45565b005b3480156102fb575f5ffd5b50610316600480360381019061031191906118c7565b610a58565b005b348015610323575f5ffd5b5061033e600480360381019061033991906117e6565b610c33565b60405161034b9190611718565b60405180910390f35b34801561035f575f5ffd5b50610368610c4c565b6040516103759190611954565b60405180910390f35b348015610389575f5ffd5b50610392610c74565b60405161039f91906115e3565b60405180910390f35b3480156103b3575f5ffd5b506103ce60048036038101906103c99190611698565b610d04565b005b3480156103db575f5ffd5b506103f660048036038101906103f19190611698565b610d85565b60405161040391906116f0565b60405180910390f35b348015610417575f5ffd5b50610432600480360381019061042d91906117e6565b610e13565b60405161043f91906116f0565b60405180910390f35b348015610453575f5ffd5b5061046e60048036038101906104699190611997565b610e65565b005b34801561047b575f5ffd5b5061049660048036038101906104919190611a29565b610f81565b005b3480156104a3575f5ffd5b506104be60048036038101906104b99190611ac6565b611144565b6040516104cb9190611718565b60405180910390f35b6104ee60048036038101906104e991906117e6565b6111db565b005b61050a600480360381019061050591906117e6565b611219565b005b348015610517575f5ffd5b50610532600480360381019061052d91906117e6565b611242565b60405161053f9190611718565b60405180910390f35b60605f805461055690611b31565b80601f016020809104026020016040519081016040528092919081815260200182805461058290611b31565b80156105cd5780601f106105a4576101008083540402835291602001916105cd565b820191905f5260205f20905b8154815290600101906020018083116105b057829003601f168201915b5050505050905090565b5f6105e061125b565b15610613578119156e22d473030f116ddee9f6b43ac78ba38460601b60601c181761061257633f68539a5f526004601cfd5b5b82602052637f5e9f20600c52335f52816034600c2055815f52602c5160601c337f8c5be1e5ebec7d5bd14f71427d1e84f3dd0314c0f7b2291e5b200ac8c7c3b92560205fa36001905092915050565b5f6805345cdf77eb68f44c54905090565b5f61067f848484611263565b61068761125b565b15610755578360601b6e22d473030f116ddee9f6b43ac78ba333146106e05733602052637f5e9f208117600c526034600c2080548019156106dd57808511156106d7576313be252b5f526004601cfd5b84810382555b50505b6387a211a28117600c526020600c208054808511156107065763f4d678b85f526004601cfd5b8481038255855f526020600c2085815401815585602052600c5160601c8460601c7fddf252ad1be2c89b69c2b068fc378daa952ba7f163c4a11628f55a4df523b3ef602080a350505050610803565b8360601b33602052637f5e9f208117600c526034600c208054801915610790578085111561078a576313be252b5f526004601cfd5b84810382555b6387a211a28317600c526020600c208054808711156107b65763f4d678b85f526004601cfd5b8681038255875f526020600c2087815401815587602052600c5160601c8660601c7fddf252ad1be2c89b69c2b068fc378daa952ba7f163c4a11628f55a4df523b3ef602080a35050505050505b61080e848484611273565b600190509392505050565b5f610822611283565b67ffffffffffffffff164201905063389a75e1600c52335f52806020600c2055337fdbf36a107da19e49527a7176a1babf963b4b0ff8cde35ee35d6cd8f1f9ac7e1d5f5fa250565b5f6012905090565b5f5f61087c61128d565b90505f5f1b81036108995761088f610548565b8051906020012090505b5f6108a2611291565b90506040517f8b73c3c69bb8fe3d512ecc4cf759cc79239f7b179b0ffacaa9a75d522b39400f815282602082015281604082015246606082015230608082015260a08120935050505090565b5f73ffffffffffffffffffffffffffffffffffffffff168273ffffffffffffffffffffffffffffffffffffffff160361095c576040517f08c379a000000000000000000000000000000000000000000000000000000000815260040161095390611bab565b60405180910390fd5b60025f3373ffffffffffffffffffffffffffffffffffffffff1673ffffffffffffffffffffffffffffffffffffffff1681526020019081526020015f205f9054906101000a900460ff166109e5576040517f08c379a00000000000000000000000000000000000000000000000000000000081526004016109dc90611c13565b60405180910390fd5b6109ef82826112ba565b5050565b63389a75e1600c52335f525f6020600c2055337ffa7b8eab7da67f412cc9575ed43464468f9bfbae89d1675917346ca6d8fe3c925f5fa2565b5f6387a211a2600c52815f526020600c20549050919050565b610a4d61134c565b610a565f611383565b565b60025f3373ffffffffffffffffffffffffffffffffffffffff1673ffffffffffffffffffffffffffffffffffffffff1681526020019081526020015f205f9054906101000a900460ff16610ae1576040517f08c379a0000000000000000000000000000000000000000000000000000000008152600401610ad890611c13565b60405180910390fd5b818190508484905014610b29576040517f08c379a0000000000000000000000000000000000000000000000000000000008152600401610b2090611ca1565b60405180910390fd5b5f5f90505b84849050811015610c2c575f73ffffffffffffffffffffffffffffffffffffffff16858583818110610b6357610b62611cbf565b5b9050602002016020810190610b7891906117e6565b73ffffffffffffffffffffffffffffffffffffffff1603610bce576040517f08c379a0000000000000000000000000000000000000000000000000000000008152600401610bc590611bab565b60405180910390fd5b610c18858583818110610be457610be3611cbf565b5b9050602002016020810190610bf991906117e6565b848484818110610c0c57610c0b611cbf565b5b905060200201356112ba565b600181610c259190611d19565b9050610b2e565b5050505050565b5f6338377508600c52815f526020600c20549050919050565b5f7fffffffffffffffffffffffffffffffffffffffffffffffffffffffff7487392754905090565b606060018054610c8390611b31565b80601f0160208091040260200160405190810160405280929190818152602001828054610caf90611b31565b8015610cfa5780601f10610cd157610100808354040283529160200191610cfa565b820191905f5260205f20905b815481529060010190602001808311610cdd57829003601f168201915b5050505050905090565b3373ffffffffffffffffffffffffffffffffffffffff168273ffffffffffffffffffffffffffffffffffffffff1603610d4657610d418282611449565b610d81565b5f610d518333611144565b905081811015610d5f575f5ffd5b610d7583338484610d709190611d4c565b6114d9565b610d7f8383611449565b505b5050565b5f610d91338484611263565b6387a211a2600c52335f526020600c20805480841115610db85763f4d678b85f526004601cfd5b8381038255845f526020600c2084815401815584602052600c5160601c337fddf252ad1be2c89b69c2b068fc378daa952ba7f163c4a11628f55a4df523b3ef602080a3505050610e09338484611273565b6001905092915050565b5f60025f8373ffffffffffffffffffffffffffffffffffffffff1673ffffffffffffffffffffffffffffffffffffffff1681526020019081526020015f205f9054906101000a900460ff169050919050565b610e6d61134c565b5f73ffffffffffffffffffffffffffffffffffffffff168273ffffffffffffffffffffffffffffffffffffffff1603610edb576040517f08c379a0000000000000000000000000000000000000000000000000000000008152600401610ed290611dc9565b60405180910390fd5b8060025f8473ffffffffffffffffffffffffffffffffffffffff1673ffffffffffffffffffffffffffffffffffffffff1681526020019081526020015f205f6101000a81548160ff0219169083151502179055508173ffffffffffffffffffffffffffffffffffffffff167f583b0aa0e528532caf4b907c11d7a8158a122fe2a6fb80cd9b09776ebea8d92d82604051610f7591906116f0565b60405180910390a25050565b610f8961125b565b15610fbc578419156e22d473030f116ddee9f6b43ac78ba38760601b60601c1817610fbb57633f68539a5f526004601cfd5b5b5f610fc561128d565b90505f5f1b8103610fe257610fd8610548565b8051906020012090505b5f610feb611291565b90508542111561100257631a15a3cc5f526004601cfd5b6040518960601b60601c99508860601b60601c985065383775081901600e52895f526020600c2080547f8b73c3c69bb8fe3d512ecc4cf759cc79239f7b179b0ffacaa9a75d522b39400f835284602084015283604084015246606084015230608084015260a08320602e527f6e71edae12b1b97f4d1f60370fef10105fa2faae0126114a169c64845d6126c983528b60208401528a60408401528960608401528060808401528860a084015260c08320604e526042602c205f528760ff16602052866040528560605260208060805f60015afa8c3d51146110ea5763ddafbaef5f526004601cfd5b80820183558b637f5e9f2060a01b176040528a6034602c20558b8d7f8c5be1e5ebec7d5bd14f71427d1e84f3dd0314c0f7b2291e5b200ac8c7c3b925602060608801a3836040525f60605250505050505050505050505050565b5f61114d61125b565b156111bd576e22d473030f116ddee9f6b43ac78ba373ffffffffffffffffffffffffffffffffffffffff168273ffffffffffffffffffffffffffffffffffffffff16036111bc577fffffffffffffffffffffffffffffffffffffffffffffffffffffffffffffffff90506111d5565b5b81602052637f5e9f20600c52825f526034600c205490505b92915050565b6111e361134c565b63389a75e1600c52805f526020600c20805442111561120957636f5e88185f526004601cfd5b5f81555061121681611383565b50565b61122161134c565b8060601b61123657637448fbae5f526004601cfd5b61123f81611383565b50565b5f63389a75e1600c52815f526020600c20549050919050565b5f6001905090565b61126e838383611565565b505050565b61127e83838361156a565b505050565b5f6202a300905090565b5f90565b5f7fc89efdaa54c0f20c7adf612882df0950f5a951637e0307cdcb4c672f298b8bc65f1b905090565b6112c55f8383611263565b6805345cdf77eb68f44c54818101818110156112e85763e5cfe9575f526004601cfd5b806805345cdf77eb68f44c556387a211a2600c52835f526020600c2083815401815583602052600c5160601c5f7fddf252ad1be2c89b69c2b068fc378daa952ba7f163c4a11628f55a4df523b3ef602080a35050506113485f8383611273565b5050565b7fffffffffffffffffffffffffffffffffffffffffffffffffffffffff74873927543314611381576382b429005f526004601cfd5b565b61138b61156f565b156113f0577fffffffffffffffffffffffffffffffffffffffffffffffffffffffff748739278160601b60601c91508181547f8be0079c531659141344cd1fd0a4f28419497f9722a3daafe3b4186f6b6457e05f5fa3811560ff1b8217815550611446565b7fffffffffffffffffffffffffffffffffffffffffffffffffffffffff748739278160601b60601c91508181547f8be0079c531659141344cd1fd0a4f28419497f9722a3daafe3b4186f6b6457e05f5fa3818155505b50565b611454825f83611263565b6387a211a2600c52815f526020600c2080548083111561147b5763f4d678b85f526004601cfd5b8281038255826805345cdf77eb68f44c54036805345cdf77eb68f44c55825f525f8460601b60601c7fddf252ad1be2c89b69c2b068fc378daa952ba7f163c4a11628f55a4df523b3ef60205fa350506114d5825f83611273565b5050565b6114e161125b565b15611514578019156e22d473030f116ddee9f6b43ac78ba38360601b60601c181761151357633f68539a5f526004601cfd5b5b8260601b82602052637f5e9f208117600c52816034600c2055815f52602c5160601c8160601c7f8c5be1e5ebec7d5bd14f71427d1e84f3dd0314c0f7b2291e5b200ac8c7c3b92560205fa350505050565b505050565b505050565b5f90565b5f81519050919050565b5f82825260208201905092915050565b8281835e5f83830152505050565b5f601f19601f8301169050919050565b5f6115b582611573565b6115bf818561157d565b93506115cf81856020860161158d565b6115d88161159b565b840191505092915050565b5f6020820190508181035f8301526115fb81846115ab565b905092915050565b5f5ffd5b5f5ffd5b5f73ffffffffffffffffffffffffffffffffffffffff82169050919050565b5f6116348261160b565b9050919050565b6116448161162a565b811461164e575f5ffd5b50565b5f8135905061165f8161163b565b92915050565b5f819050919050565b61167781611665565b8114611681575f5ffd5b50565b5f813590506116928161166e565b92915050565b5f5f604083850312156116ae576116ad611603565b5b5f6116bb85828601611651565b92505060206116cc85828601611684565b9150509250929050565b5f8115159050919050565b6116ea816116d6565b82525050565b5f6020820190506117035f8301846116e1565b92915050565b61171281611665565b82525050565b5f60208201905061172b5f830184611709565b92915050565b5f5f5f6060848603121561174857611747611603565b5b5f61175586828701611651565b935050602061176686828701611651565b925050604061177786828701611684565b9150509250925092565b5f60ff82169050919050565b61179681611781565b82525050565b5f6020820190506117af5f83018461178d565b92915050565b5f819050919050565b6117c7816117b5565b82525050565b5f6020820190506117e05f8301846117be565b92915050565b5f602082840312156117fb576117fa611603565b5b5f61180884828501611651565b91505092915050565b5f5ffd5b5f5ffd5b5f5ffd5b5f5f83601f84011261183257611831611811565b5b8235905067ffffffffffffffff81111561184f5761184e611815565b5b60208301915083602082028301111561186b5761186a611819565b5b9250929050565b5f5f83601f84011261188757611886611811565b5b8235905067ffffffffffffffff8111156118a4576118a3611815565b5b6020830191508360208202830111156118c0576118bf611819565b5b9250929050565b5f5f5f5f604085870312156118df576118de611603565b5b5f85013567ffffffffffffffff8111156118fc576118fb611607565b5b6119088782880161181d565b9450945050602085013567ffffffffffffffff81111561192b5761192a611607565b5b61193787828801611872565b925092505092959194509250565b61194e8161162a565b82525050565b5f6020820190506119675f830184611945565b92915050565b611976816116d6565b8114611980575f5ffd5b50565b5f813590506119918161196d565b92915050565b5f5f604083850312156119ad576119ac611603565b5b5f6119ba85828601611651565b92505060206119cb85828601611983565b9150509250929050565b6119de81611781565b81146119e8575f5ffd5b50565b5f813590506119f9816119d5565b92915050565b611a08816117b5565b8114611a12575f5ffd5b50565b5f81359050611a23816119ff565b92915050565b5f5f5f5f5f5f5f60e0888a031215611a4457611a43611603565b5b5f611a518a828b01611651565b9750506020611a628a828b01611651565b9650506040611a738a828b01611684565b9550506060611a848a828b01611684565b9450506080611a958a828b016119eb565b93505060a0611aa68a828b01611a15565b92505060c0611ab78a828b01611a15565b91505092959891949750929550565b5f5f60408385031215611adc57611adb611603565b5b5f611ae985828601611651565b9250506020611afa85828601611651565b9150509250929050565b7f4e487b71000000000000000000000000000000000000000000000000000000005f52602260045260245ffd5b5f6002820490506001821680611b4857607f821691505b602082108103611b5b57611b5a611b04565b5b50919050565b7f4d696e696d616c3a20746f206973207a65726f206164647265737300000000005f82015250565b5f611b95601b8361157d565b9150611ba082611b61565b602082019050919050565b5f6020820190508181035f830152611bc281611b89565b9050919050565b7f4d696e696d616c3a206e6f74206d696e746572000000000000000000000000005f82015250565b5f611bfd60138361157d565b9150611c0882611bc9565b602082019050919050565b5f6020820190508181035f830152611c2a81611bf1565b9050919050565b7f4d696e696d616c3a20616464727320616e6420616d6f756e7473206c656e67745f8201527f68206d69736d6174636800000000000000000000000000000000000000000000602082015250565b5f611c8b602a8361157d565b9150611c9682611c31565b604082019050919050565b5f6020820190508181035f830152611cb881611c7f565b9050919050565b7f4e487b71000000000000000000000000000000000000000000000000000000005f52603260045260245ffd5b7f4e487b71000000000000000000000000000000000000000000000000000000005f52601160045260245ffd5b5f611d2382611665565b9150611d2e83611665565b9250828201905080821115611d4657611d45611cec565b5b92915050565b5f611d5682611665565b9150611d6183611665565b9250828203905081811115611d7957611d78611cec565b5b92915050565b7f4d696e696d616c3a206d696e746572206973207a65726f2061646472657373005f82015250565b5f611db3601f8361157d565b9150611dbe82611d7f565b602082019050919050565b5f6020820190508181035f830152611de081611da7565b905091905056fea26469706673582212200d57e0508d3f9452866463125acfa39809766164d8ca29fda90a906f7e30504e64736f6c634300081d0033","linkReferences":{}},"methodIdentifiers":{"DOMAIN_SEPARATOR()":"3644e515","allowance(address,address)":"dd62ed3e","approve(address,uint256)":"095ea7b3","balanceOf(address)":"70a08231","burn(address,uint256)":"9dc29fac","cancelOwnershipHandover()":"54d1f13d","completeOwnershipHandover(address)":"f04e283e","decimals()":"313ce567","isMinter(address)":"aa271e1a","mint(address,uint256)":"40c10f19","mintBatch(address[],uint256[])":"7c88e3d9","name()":"06fdde03","nonces(address)":"7ecebe00","owner()":"8da5cb5b","ownershipHandoverExpiresAt(address)":"fee81cf4","permit(address,address,uint256,uint256,uint8,bytes32,bytes32)":"d505accf","renounceOwnership()":"715018a6","requestOwnershipHandover()":"25692962","setMinter(address,bool)":"cf456ae7","symbol()":"95d89b41","totalSupply()":"18160ddd","transfer(address,uint256)":"a9059cbb","transferFrom(address,address,uint256)":"23b872dd","transferOwnership(address)":"f2fde38b"},"id":21}